{
  "address": "0x1C27a7c3c87eb567679e3CE207510C23E3e6c74f",
  "abi": [
    {
      "inputs": [
        {
          "internalType": "string",
          "name": "_name",
          "type": "string"
        },
        {
          "internalType": "string",
          "name": "_symbol",
          "type": "string"
        },
        {
          "internalType": "string",
          "name": "_initBaseURI",
          "type": "string"
        },
        {
          "internalType": "string",
          "name": "_notRevealedUri",
          "type": "string"
        },
        {
          "internalType": "address",
          "name": "_signerAddressPresale",
          "type": "address"
        },
        {
          "internalType": "address",
          "name": "_signerAddressPublic",
          "type": "address"
        },
        {
          "internalType": "address",
          "name": "_treasury",
          "type": "address"
        }
      ],
      "stateMutability": "nonpayable",
      "type": "constructor"
    },
    {
      "anonymous": false,
      "inputs": [
        {
          "indexed": true,
          "internalType": "address",
          "name": "owner",
          "type": "address"
        },
        {
          "indexed": true,
          "internalType": "address",
          "name": "approved",
          "type": "address"
        },
        {
          "indexed": true,
          "internalType": "uint256",
          "name": "tokenId",
          "type": "uint256"
        }
      ],
      "name": "Approval",
      "type": "event"
    },
    {
      "anonymous": false,
      "inputs": [
        {
          "indexed": true,
          "internalType": "address",
          "name": "owner",
          "type": "address"
        },
        {
          "indexed": true,
          "internalType": "address",
          "name": "operator",
          "type": "address"
        },
        {
          "indexed": false,
          "internalType": "bool",
          "name": "approved",
          "type": "bool"
        }
      ],
      "name": "ApprovalForAll",
      "type": "event"
    },
    {
      "anonymous": false,
      "inputs": [
        {
          "indexed": true,
          "internalType": "address",
          "name": "previousOwner",
          "type": "address"
        },
        {
          "indexed": true,
          "internalType": "address",
          "name": "newOwner",
          "type": "address"
        }
      ],
      "name": "OwnershipTransferred",
      "type": "event"
    },
    {
      "anonymous": false,
      "inputs": [
        {
          "indexed": true,
          "internalType": "address",
          "name": "from",
          "type": "address"
        },
        {
          "indexed": true,
          "internalType": "address",
          "name": "to",
          "type": "address"
        },
        {
          "indexed": true,
          "internalType": "uint256",
          "name": "tokenId",
          "type": "uint256"
        }
      ],
      "name": "Transfer",
      "type": "event"
    },
    {
      "inputs": [],
      "name": "SHOGUN_TOKEN",
      "outputs": [
        {
          "internalType": "contract IShogunToken",
          "name": "",
          "type": "address"
        }
      ],
      "stateMutability": "view",
      "type": "function"
    },
    {
      "inputs": [
        {
          "internalType": "address[]",
          "name": "giveawayList",
          "type": "address[]"
        }
      ],
      "name": "airdrop",
      "outputs": [],
      "stateMutability": "nonpayable",
      "type": "function"
    },
    {
      "inputs": [
        {
          "internalType": "address",
          "name": "to",
          "type": "address"
        },
        {
          "internalType": "uint256",
          "name": "tokenId",
          "type": "uint256"
        }
      ],
      "name": "approve",
      "outputs": [],
      "stateMutability": "nonpayable",
      "type": "function"
    },
    {
      "inputs": [
        {
          "internalType": "address",
          "name": "owner",
          "type": "address"
        }
      ],
      "name": "balanceOf",
      "outputs": [
        {
          "internalType": "uint256",
          "name": "",
          "type": "uint256"
        }
      ],
      "stateMutability": "view",
      "type": "function"
    },
    {
      "inputs": [],
      "name": "baseURI",
      "outputs": [
        {
          "internalType": "string",
          "name": "",
          "type": "string"
        }
      ],
      "stateMutability": "view",
      "type": "function"
    },
    {
      "inputs": [
        {
          "internalType": "uint256",
          "name": "tokenId",
          "type": "uint256"
        },
        {
          "internalType": "string",
          "name": "newName",
          "type": "string"
        }
      ],
      "name": "changeName",
      "outputs": [],
      "stateMutability": "nonpayable",
      "type": "function"
    },
    {
      "inputs": [],
      "name": "cost",
      "outputs": [
        {
          "internalType": "uint256",
          "name": "",
          "type": "uint256"
        }
      ],
      "stateMutability": "view",
      "type": "function"
    },
    {
      "inputs": [
        {
          "internalType": "uint256",
          "name": "_mintAmount",
          "type": "uint256"
        }
      ],
      "name": "devMint",
      "outputs": [],
      "stateMutability": "nonpayable",
      "type": "function"
    },
    {
      "inputs": [
        {
          "internalType": "uint256",
          "name": "tokenId",
          "type": "uint256"
        }
      ],
      "name": "getApproved",
      "outputs": [
        {
          "internalType": "address",
          "name": "",
          "type": "address"
        }
      ],
      "stateMutability": "view",
      "type": "function"
    },
    {
      "inputs": [
        {
          "internalType": "address",
          "name": "owner",
          "type": "address"
        },
        {
          "internalType": "address",
          "name": "operator",
          "type": "address"
        }
      ],
      "name": "isApprovedForAll",
      "outputs": [
        {
          "internalType": "bool",
          "name": "",
          "type": "bool"
        }
      ],
      "stateMutability": "view",
      "type": "function"
    },
    {
      "inputs": [],
      "name": "isPresaleOpen",
      "outputs": [
        {
          "internalType": "bool",
          "name": "",
          "type": "bool"
        }
      ],
      "stateMutability": "view",
      "type": "function"
    },
    {
      "inputs": [],
      "name": "isPublicSaleOpen",
      "outputs": [
        {
          "internalType": "bool",
          "name": "",
          "type": "bool"
        }
      ],
      "stateMutability": "view",
      "type": "function"
    },
    {
      "inputs": [
        {
          "internalType": "address",
          "name": "_user",
          "type": "address"
        }
      ],
      "name": "isWhitelisted",
      "outputs": [
        {
          "internalType": "bool",
          "name": "",
          "type": "bool"
        }
      ],
      "stateMutability": "view",
      "type": "function"
    },
    {
      "inputs": [
        {
          "internalType": "uint256[]",
          "name": "_tokenIds",
          "type": "uint256[]"
        }
      ],
      "name": "lockToken",
      "outputs": [],
      "stateMutability": "nonpayable",
      "type": "function"
    },
    {
      "inputs": [],
      "name": "maxMintPerTxn",
      "outputs": [
        {
          "internalType": "uint256",
          "name": "",
          "type": "uint256"
        }
      ],
      "stateMutability": "view",
      "type": "function"
    },
    {
      "inputs": [],
      "name": "maxSupply",
      "outputs": [
        {
          "internalType": "uint256",
          "name": "",
          "type": "uint256"
        }
      ],
      "stateMutability": "view",
      "type": "function"
    },
    {
      "inputs": [],
      "name": "name",
      "outputs": [
        {
          "internalType": "string",
          "name": "",
          "type": "string"
        }
      ],
      "stateMutability": "view",
      "type": "function"
    },
    {
      "inputs": [],
      "name": "nameChangePrice",
      "outputs": [
        {
          "internalType": "uint256",
          "name": "",
          "type": "uint256"
        }
      ],
      "stateMutability": "view",
      "type": "function"
    },
    {
      "inputs": [],
      "name": "nftPerAddressLimitPresale",
      "outputs": [
        {
          "internalType": "uint256",
          "name": "",
          "type": "uint256"
        }
      ],
      "stateMutability": "view",
      "type": "function"
    },
    {
      "inputs": [],
      "name": "nftPerAddressLimitPublic",
      "outputs": [
        {
          "internalType": "uint256",
          "name": "",
          "type": "uint256"
        }
      ],
      "stateMutability": "view",
      "type": "function"
    },
    {
      "inputs": [],
      "name": "notRevealedUri",
      "outputs": [
        {
          "internalType": "string",
          "name": "",
          "type": "string"
        }
      ],
      "stateMutability": "view",
      "type": "function"
    },
    {
      "inputs": [],
      "name": "owner",
      "outputs": [
        {
          "internalType": "address",
          "name": "",
          "type": "address"
        }
      ],
      "stateMutability": "view",
      "type": "function"
    },
    {
      "inputs": [
        {
          "internalType": "uint256",
          "name": "tokenId",
          "type": "uint256"
        }
      ],
      "name": "ownerOf",
      "outputs": [
        {
          "internalType": "address",
          "name": "",
          "type": "address"
        }
      ],
      "stateMutability": "view",
      "type": "function"
    },
    {
      "inputs": [
        {
          "internalType": "bool",
          "name": "_state",
          "type": "bool"
        }
      ],
      "name": "pause",
      "outputs": [],
      "stateMutability": "nonpayable",
      "type": "function"
    },
    {
      "inputs": [],
      "name": "paused",
      "outputs": [
        {
          "internalType": "bool",
          "name": "",
          "type": "bool"
        }
      ],
      "stateMutability": "view",
      "type": "function"
    },
    {
      "inputs": [
        {
          "internalType": "bytes",
          "name": "nonce",
          "type": "bytes"
        },
        {
          "internalType": "bytes",
          "name": "signature",
          "type": "bytes"
        },
        {
          "internalType": "uint256",
          "name": "_mintAmount",
          "type": "uint256"
        }
      ],
      "name": "presaleMint",
      "outputs": [],
      "stateMutability": "payable",
      "type": "function"
    },
    {
      "inputs": [],
      "name": "presaleOpen",
      "outputs": [
        {
          "internalType": "bool",
          "name": "",
          "type": "bool"
        }
      ],
      "stateMutability": "view",
      "type": "function"
    },
    {
      "inputs": [],
      "name": "presaleStartTime",
      "outputs": [
        {
          "internalType": "uint256",
          "name": "",
          "type": "uint256"
        }
      ],
      "stateMutability": "view",
      "type": "function"
    },
    {
      "inputs": [],
      "name": "presaleWindow",
      "outputs": [
        {
          "internalType": "uint256",
          "name": "",
          "type": "uint256"
        }
      ],
      "stateMutability": "view",
      "type": "function"
    },
    {
      "inputs": [
        {
          "internalType": "bytes",
          "name": "nonce",
          "type": "bytes"
        },
        {
          "internalType": "bytes",
          "name": "signature",
          "type": "bytes"
        },
        {
          "internalType": "uint256",
          "name": "_mintAmount",
          "type": "uint256"
        }
      ],
      "name": "publicMint",
      "outputs": [],
      "stateMutability": "payable",
      "type": "function"
    },
    {
      "inputs": [],
      "name": "publicSaleOpen",
      "outputs": [
        {
          "internalType": "bool",
          "name": "",
          "type": "bool"
        }
      ],
      "stateMutability": "view",
      "type": "function"
    },
    {
      "inputs": [],
      "name": "publicSaleStartTime",
      "outputs": [
        {
          "internalType": "uint256",
          "name": "",
          "type": "uint256"
        }
      ],
      "stateMutability": "view",
      "type": "function"
    },
    {
      "inputs": [],
      "name": "renounceOwnership",
      "outputs": [],
      "stateMutability": "nonpayable",
      "type": "function"
    },
    {
      "inputs": [],
      "name": "reveal",
      "outputs": [],
      "stateMutability": "nonpayable",
      "type": "function"
    },
    {
      "inputs": [],
      "name": "revealed",
      "outputs": [
        {
          "internalType": "bool",
          "name": "",
          "type": "bool"
        }
      ],
      "stateMutability": "view",
      "type": "function"
    },
    {
      "inputs": [
        {
          "internalType": "address",
          "name": "from",
          "type": "address"
        },
        {
          "internalType": "address",
          "name": "to",
          "type": "address"
        },
        {
          "internalType": "uint256",
          "name": "tokenId",
          "type": "uint256"
        }
      ],
      "name": "safeTransferFrom",
      "outputs": [],
      "stateMutability": "nonpayable",
      "type": "function"
    },
    {
      "inputs": [
        {
          "internalType": "address",
          "name": "from",
          "type": "address"
        },
        {
          "internalType": "address",
          "name": "to",
          "type": "address"
        },
        {
          "internalType": "uint256",
          "name": "tokenId",
          "type": "uint256"
        },
        {
          "internalType": "bytes",
          "name": "_data",
          "type": "bytes"
        }
      ],
      "name": "safeTransferFrom",
      "outputs": [],
      "stateMutability": "nonpayable",
      "type": "function"
    },
    {
      "inputs": [
        {
          "internalType": "uint256",
          "name": "_tokenId",
          "type": "uint256"
        }
      ],
      "name": "seppuku",
      "outputs": [],
      "stateMutability": "nonpayable",
      "type": "function"
    },
    {
      "inputs": [
        {
          "internalType": "address",
          "name": "operator",
          "type": "address"
        },
        {
          "internalType": "bool",
          "name": "approved",
          "type": "bool"
        }
      ],
      "name": "setApprovalForAll",
      "outputs": [],
      "stateMutability": "nonpayable",
      "type": "function"
    },
    {
      "inputs": [
        {
          "internalType": "string",
          "name": "_newBaseURI",
          "type": "string"
        }
      ],
      "name": "setBaseURI",
      "outputs": [],
      "stateMutability": "nonpayable",
      "type": "function"
    },
    {
      "inputs": [
        {
          "internalType": "uint256",
          "name": "_newNameChangePrice",
          "type": "uint256"
        }
      ],
      "name": "setNameChangePrice",
      "outputs": [],
      "stateMutability": "nonpayable",
      "type": "function"
    },
    {
      "inputs": [
        {
          "internalType": "string",
          "name": "_notRevealedUri",
          "type": "string"
        }
      ],
      "name": "setNotRevealedUri",
      "outputs": [],
      "stateMutability": "nonpayable",
      "type": "function"
    },
    {
      "inputs": [
        {
          "internalType": "bool",
          "name": "_presaleOpen",
          "type": "bool"
        }
      ],
      "name": "setPresaleOpen",
      "outputs": [],
      "stateMutability": "nonpayable",
      "type": "function"
    },
    {
      "inputs": [
        {
          "internalType": "bool",
          "name": "_publicSaleOpen",
          "type": "bool"
        }
      ],
      "name": "setPublicSaleOpen",
      "outputs": [],
      "stateMutability": "nonpayable",
      "type": "function"
    },
    {
      "inputs": [
        {
          "internalType": "address",
          "name": "_shogunToken",
          "type": "address"
        }
      ],
      "name": "setShogunToken",
      "outputs": [],
      "stateMutability": "nonpayable",
      "type": "function"
    },
    {
      "inputs": [
        {
          "internalType": "address",
          "name": "presaleSignerAddresss",
          "type": "address"
        }
      ],
      "name": "setSignerAddressPresale",
      "outputs": [],
      "stateMutability": "nonpayable",
      "type": "function"
    },
    {
      "inputs": [
        {
          "internalType": "address",
          "name": "publicSignerAddress",
          "type": "address"
        }
      ],
      "name": "setSignerAddressPublic",
      "outputs": [],
      "stateMutability": "nonpayable",
      "type": "function"
    },
    {
      "inputs": [
        {
          "internalType": "address",
          "name": "_stakingContract",
          "type": "address"
        }
      ],
      "name": "setStakingContractAddress",
      "outputs": [],
      "stateMutability": "nonpayable",
      "type": "function"
    },
    {
      "inputs": [
        {
          "internalType": "uint256",
          "name": "",
          "type": "uint256"
        }
      ],
      "name": "shogunName",
      "outputs": [
        {
          "internalType": "string",
          "name": "",
          "type": "string"
        }
      ],
      "stateMutability": "view",
      "type": "function"
    },
    {
      "inputs": [],
      "name": "stakingContractAddress",
      "outputs": [
        {
          "internalType": "address",
          "name": "",
          "type": "address"
        }
      ],
      "stateMutability": "view",
      "type": "function"
    },
    {
      "inputs": [
        {
          "internalType": "bytes4",
          "name": "interfaceId",
          "type": "bytes4"
        }
      ],
      "name": "supportsInterface",
      "outputs": [
        {
          "internalType": "bool",
          "name": "",
          "type": "bool"
        }
      ],
      "stateMutability": "view",
      "type": "function"
    },
    {
      "inputs": [],
      "name": "symbol",
      "outputs": [
        {
          "internalType": "string",
          "name": "",
          "type": "string"
        }
      ],
      "stateMutability": "view",
      "type": "function"
    },
    {
      "inputs": [
        {
          "internalType": "uint256",
          "name": "index",
          "type": "uint256"
        }
      ],
      "name": "tokenByIndex",
      "outputs": [
        {
          "internalType": "uint256",
          "name": "",
          "type": "uint256"
        }
      ],
      "stateMutability": "view",
      "type": "function"
    },
    {
      "inputs": [
        {
          "internalType": "uint256",
          "name": "index",
          "type": "uint256"
        }
      ],
      "name": "tokenNameByIndex",
      "outputs": [
        {
          "internalType": "string",
          "name": "",
          "type": "string"
        }
      ],
      "stateMutability": "view",
      "type": "function"
    },
    {
      "inputs": [
        {
          "internalType": "address",
          "name": "owner",
          "type": "address"
        },
        {
          "internalType": "uint256",
          "name": "index",
          "type": "uint256"
        }
      ],
      "name": "tokenOfOwnerByIndex",
      "outputs": [
        {
          "internalType": "uint256",
          "name": "",
          "type": "uint256"
        }
      ],
      "stateMutability": "view",
      "type": "function"
    },
    {
      "inputs": [
        {
          "internalType": "uint256",
          "name": "tokenId",
          "type": "uint256"
        }
      ],
      "name": "tokenURI",
      "outputs": [
        {
          "internalType": "string",
          "name": "",
          "type": "string"
        }
      ],
      "stateMutability": "view",
      "type": "function"
    },
    {
      "inputs": [],
      "name": "totalSupply",
      "outputs": [
        {
          "internalType": "uint256",
          "name": "",
          "type": "uint256"
        }
      ],
      "stateMutability": "view",
      "type": "function"
    },
    {
      "inputs": [
        {
          "internalType": "address",
          "name": "from",
          "type": "address"
        },
        {
          "internalType": "address",
          "name": "to",
          "type": "address"
        },
        {
          "internalType": "uint256",
          "name": "tokenId",
          "type": "uint256"
        }
      ],
      "name": "transferFrom",
      "outputs": [],
      "stateMutability": "nonpayable",
      "type": "function"
    },
    {
      "inputs": [
        {
          "internalType": "address",
          "name": "newOwner",
          "type": "address"
        }
      ],
      "name": "transferOwnership",
      "outputs": [],
      "stateMutability": "nonpayable",
      "type": "function"
    },
    {
      "inputs": [],
      "name": "treasury",
      "outputs": [
        {
          "internalType": "address payable",
          "name": "",
          "type": "address"
        }
      ],
      "stateMutability": "view",
      "type": "function"
    },
    {
      "inputs": [
        {
          "internalType": "uint256[]",
          "name": "_tokenIds",
          "type": "uint256[]"
        }
      ],
      "name": "unlockToken",
      "outputs": [],
      "stateMutability": "nonpayable",
      "type": "function"
    },
    {
      "inputs": [
        {
          "internalType": "string",
          "name": "str",
          "type": "string"
        }
      ],
      "name": "validateName",
      "outputs": [
        {
          "internalType": "bool",
          "name": "",
          "type": "bool"
        }
      ],
      "stateMutability": "pure",
      "type": "function"
    },
    {
      "inputs": [
        {
          "internalType": "address",
          "name": "_owner",
          "type": "address"
        }
      ],
      "name": "walletOfOwner",
      "outputs": [
        {
          "internalType": "uint256[]",
          "name": "",
          "type": "uint256[]"
        }
      ],
      "stateMutability": "view",
      "type": "function"
    },
    {
      "inputs": [
        {
          "internalType": "address[]",
          "name": "_users",
          "type": "address[]"
        }
      ],
      "name": "whitelistUsers",
      "outputs": [],
      "stateMutability": "nonpayable",
      "type": "function"
    },
    {
      "inputs": [
        {
          "internalType": "address",
          "name": "",
          "type": "address"
        }
      ],
      "name": "whitelistedAddresses",
      "outputs": [
        {
          "internalType": "bool",
          "name": "",
          "type": "bool"
        }
      ],
      "stateMutability": "view",
      "type": "function"
    },
    {
      "inputs": [],
      "name": "withdrawToTreasury",
      "outputs": [],
      "stateMutability": "payable",
      "type": "function"
    }
  ],
  "transactionHash": "0xbd718eaccee1dc903d656908b89ce18071eceae7f60367c444bd216e40b568c0",
  "args": [
    "ShogunSamurais",
    "SGS",
    "",
    "https://gateway.pinata.cloud/ipfs/QmWJeHGBPN6x74svUjzJifHUawNxLM1kBQDecRsBY992rE",
    "0x2348681242641A26FdEE99633848EA3bf995986A",
    "0x01Bc98715Ecd2643259A396213d86582Ed7571F5",
    "0x9115eD5a96E881F12868E83d0C5A18444E22c063"
  ],
  "solcInputHash": "c00674a2e7b7651ea8fd47157cf0c315",
  "bytecode": "0x608060405267011c37937e0800006012556122b8601355600460145560086015556002601655681043561a88293000006017556201518060185563616a160060195563616b9fc0601a55601b805461ffff19908116909155601d805490911690553480156200006d57600080fd5b5060405162004e3238038062004e3283398101604081905262000090916200044b565b865187908790620000a9906000906020850190620002dd565b508051620000bf906001906020840190620002dd565b505050620000dc620000d66200014060201b60201c565b62000144565b620000e78562000196565b8351620000fc906011906020870190620002dd565b506200010883620001fe565b620001138262000266565b600c80546001600160a01b0319166001600160a01b039290921691909117905550620005bf945050505050565b3390565b600a80546001600160a01b038381166001600160a01b0319831681179093556040519116919082907f8be0079c531659141344cd1fd0a4f28419497f9722a3daafe3b4186f6b6457e090600090a35050565b620001a062000140565b6001600160a01b0316620001b3620002ce565b6001600160a01b031614620001e55760405162461bcd60e51b8152600401620001dc9062000537565b60405180910390fd5b8051620001fa906010906020840190620002dd565b5050565b6200020862000140565b6001600160a01b03166200021b620002ce565b6001600160a01b031614620002445760405162461bcd60e51b8152600401620001dc9062000537565b600f80546001600160a01b0319166001600160a01b0392909216919091179055565b6200027062000140565b6001600160a01b031662000283620002ce565b6001600160a01b031614620002ac5760405162461bcd60e51b8152600401620001dc9062000537565b600e80546001600160a01b0319166001600160a01b0392909216919091179055565b600a546001600160a01b031690565b828054620002eb906200056c565b90600052602060002090601f0160209004810192826200030f57600085556200035a565b82601f106200032a57805160ff19168380011785556200035a565b828001600101855582156200035a579182015b828111156200035a5782518255916020019190600101906200033d565b50620003689291506200036c565b5090565b5b808211156200036857600081556001016200036d565b80516001600160a01b03811681146200039b57600080fd5b919050565b600082601f830112620003b1578081fd5b81516001600160401b0380821115620003ce57620003ce620005a9565b6040516020601f8401601f1916820181018381118382101715620003f657620003f6620005a9565b60405283825285840181018710156200040d578485fd5b8492505b8383101562000430578583018101518284018201529182019162000411565b838311156200044157848185840101525b5095945050505050565b600080600080600080600060e0888a03121562000466578283fd5b87516001600160401b03808211156200047d578485fd5b6200048b8b838c01620003a0565b985060208a0151915080821115620004a1578485fd5b620004af8b838c01620003a0565b975060408a0151915080821115620004c5578485fd5b620004d38b838c01620003a0565b965060608a0151915080821115620004e9578485fd5b50620004f88a828b01620003a0565b945050620005096080890162000383565b92506200051960a0890162000383565b91506200052960c0890162000383565b905092959891949750929550565b6020808252818101527f4f776e61626c653a2063616c6c6572206973206e6f7420746865206f776e6572604082015260600190565b6002810460018216806200058157607f821691505b60208210811415620005a357634e487b7160e01b600052602260045260246000fd5b50919050565b634e487b7160e01b600052604160045260246000fd5b61486380620005cf6000396000f3fe6080604052600436106103d95760003560e01c80636c0360eb116101fd578063b88d4fde11610118578063da4ac476116100ab578063edec5f271161007a578063edec5f2714610a92578063f2fde38b14610ab2578063f5b9662114610ad2578063f9e2379914610af2578063fdc593c314610b07576103d9565b8063da4ac47614610a1d578063e6cf726b14610a3d578063e985e9c514610a5d578063eb4f847b14610a7d576103d9565b8063c87b56dd116100e7578063c87b56dd146109be578063caa8078f146109de578063ce8b680c146109f3578063d5abeb0114610a08576103d9565b8063b88d4fde14610949578063bee6348a14610969578063c17ecd121461097e578063c39cbef11461099e576103d9565b806384a1b902116101905780639ffdb65a1161015f5780639ffdb65a146108df578063a22cb465146108ff578063a475b5dd1461091f578063a82524b214610934576103d9565b806384a1b90214610880578063885bf15c146108a05780638da5cb5b146108b557806395d89b41146108ca576103d9565b8063715018a6116101cc578063715018a61461082e578063729ad39e146108435780637e80c186146108635780638124428a1461086b576103d9565b80636c0360eb146107b95780636d522418146107ce5780636defcd46146107ee57806370a082311461080e576103d9565b80632e09282e116102f857806349759d951161028b5780635c975abb1161025a5780635c975abb1461073a57806361d027b31461074f5780636352211e14610764578063665adcfd146107845780636bb7b1d9146107a4576103d9565b806349759d95146106c55780634f6ccce7146106e5578063518302271461070557806355f804b31461071a576103d9565b80633af32abf116102c75780633af32abf1461064357806342842e0e14610663578063438b63001461068357806345ca7738146106b0576103d9565b80632e09282e146105d95780632f745c59146105ee5780633535f48b1461060e578063375a069a14610623576103d9565b806313faede6116103705780631c1f8aa31161033f5780631c1f8aa31461056657806322a589c11461058657806323394d991461059957806323b872dd146105b9576103d9565b806313faede6146104fa57806318160ddd1461051c578063190145bb146105315780631a6949e314610551576103d9565b8063081812fc116103ac578063081812fc14610478578063081c8c44146104a5578063095ea7b3146104ba5780630acb7924146104da576103d9565b806301ffc9a7146103de57806302329a291461041457806306c933d81461043657806306fdde0314610456575b600080fd5b3480156103ea57600080fd5b506103fe6103f9366004613791565b610b1a565b60405161040b9190613abe565b60405180910390f35b34801561042057600080fd5b5061043461042f36600461375f565b610b47565b005b34801561044257600080fd5b506103fe61045136600461348a565b610ba2565b34801561046257600080fd5b5061046b610bb7565b60405161040b9190613ae7565b34801561048457600080fd5b50610498610493366004613866565b610c49565b60405161040b9190613a10565b3480156104b157600080fd5b5061046b610c8c565b3480156104c657600080fd5b506104346104d53660046135a7565b610d1a565b3480156104e657600080fd5b506104346104f53660046136db565b610db2565b34801561050657600080fd5b5061050f610e52565b60405161040b9190614680565b34801561052857600080fd5b5061050f610e58565b34801561053d57600080fd5b5061046b61054c366004613866565b610e5e565b34801561055d57600080fd5b506103fe610e77565b34801561057257600080fd5b5061043461058136600461348a565b610e80565b6104346105943660046137c9565b610ee1565b3480156105a557600080fd5b506104346105b436600461375f565b61118b565b3480156105c557600080fd5b506104346105d43660046134dd565b6111e4565b3480156105e557600080fd5b5061050f61121c565b3480156105fa57600080fd5b5061050f6106093660046135a7565b611222565b34801561061a57600080fd5b50610498611274565b34801561062f57600080fd5b5061043461063e366004613866565b611283565b34801561064f57600080fd5b506103fe61065e36600461348a565b611353565b34801561066f57600080fd5b5061043461067e3660046134dd565b611371565b34801561068f57600080fd5b506106a361069e36600461348a565b61138c565b60405161040b9190613a7a565b3480156106bc57600080fd5b5061050f61144a565b3480156106d157600080fd5b506104346106e0366004613866565b611450565b3480156106f157600080fd5b5061050f610700366004613866565b611483565b34801561071157600080fd5b506103fe6114de565b34801561072657600080fd5b50610434610735366004613833565b6114ec565b34801561074657600080fd5b506103fe61153e565b34801561075b57600080fd5b50610498611547565b34801561077057600080fd5b5061049861077f366004613866565b611556565b34801561079057600080fd5b5061043461079f3660046136db565b61158b565b3480156107b057600080fd5b5061050f611627565b3480156107c557600080fd5b5061046b61162d565b3480156107da57600080fd5b5061046b6107e9366004613866565b61163a565b3480156107fa57600080fd5b5061043461080936600461348a565b6116dc565b34801561081a57600080fd5b5061050f61082936600461348a565b61173d565b34801561083a57600080fd5b50610434611781565b34801561084f57600080fd5b5061043461085e36600461363f565b6117cc565b610434611917565b34801561087757600080fd5b506104986119c4565b34801561088c57600080fd5b5061043461089b366004613866565b6119d3565b3480156108ac57600080fd5b5061050f611a17565b3480156108c157600080fd5b50610498611a1d565b3480156108d657600080fd5b5061046b611a2c565b3480156108eb57600080fd5b506103fe6108fa366004613833565b611a3b565b34801561090b57600080fd5b5061043461091a36600461357e565b611c88565b34801561092b57600080fd5b50610434611d56565b34801561094057600080fd5b5061050f611da6565b34801561095557600080fd5b50610434610964366004613518565b611dac565b34801561097557600080fd5b506103fe611deb565b34801561098a57600080fd5b50610434610999366004613833565b611df4565b3480156109aa57600080fd5b506104346109b936600461387e565b611e46565b3480156109ca57600080fd5b5061046b6109d9366004613866565b61200d565b3480156109ea57600080fd5b5061050f61213a565b3480156109ff57600080fd5b5061050f612140565b348015610a1457600080fd5b5061050f612146565b348015610a2957600080fd5b50610434610a3836600461348a565b61214c565b348015610a4957600080fd5b50610434610a5836600461348a565b6121ad565b348015610a6957600080fd5b506103fe610a783660046134ab565b61220e565b348015610a8957600080fd5b506103fe61223c565b348015610a9e57600080fd5b50610434610aad3660046135d0565b612263565b348015610abe57600080fd5b50610434610acd36600461348a565b612322565b348015610ade57600080fd5b50610434610aed36600461375f565b612390565b348015610afe57600080fd5b506103fe6123e2565b610434610b153660046137c9565b6123f0565b60006001600160e01b0319821663780e9d6360e01b1480610b3f5750610b3f8261264a565b90505b919050565b610b4f61268a565b6001600160a01b0316610b60611a1d565b6001600160a01b031614610b8f5760405162461bcd60e51b8152600401610b8690614291565b60405180910390fd5b601b805460ff1916911515919091179055565b601f6020526000908152604090205460ff1681565b606060008054610bc690614771565b80601f0160208091040260200160405190810160405280929190818152602001828054610bf290614771565b8015610c3f5780601f10610c1457610100808354040283529160200191610c3f565b820191906000526020600020905b815481529060010190602001808311610c2257829003601f168201915b5050505050905090565b6000610c548261268e565b610c705760405162461bcd60e51b8152600401610b8690614245565b506000908152600460205260409020546001600160a01b031690565b60118054610c9990614771565b80601f0160208091040260200160405190810160405280929190818152602001828054610cc590614771565b8015610d125780601f10610ce757610100808354040283529160200191610d12565b820191906000526020600020905b815481529060010190602001808311610cf557829003601f168201915b505050505081565b6000610d2582611556565b9050806001600160a01b0316836001600160a01b03161415610d595760405162461bcd60e51b8152600401610b86906143fe565b806001600160a01b0316610d6b61268a565b6001600160a01b03161480610d875750610d8781610a7861268a565b610da35760405162461bcd60e51b8152600401610b8690613f94565b610dad83836126ab565b505050565b600d546001600160a01b03163314610ddc5760405162461bcd60e51b8152600401610b8690613d68565b60005b8151811015610e4e576001601e6000848481518110610e0e57634e487b7160e01b600052603260045260246000fd5b6020026020010151815260200190815260200160002060006101000a81548160ff0219169083151502179055508080610e46906147a6565b915050610ddf565b5050565b60125481565b60085490565b601c6020526000908152604090208054610c9990614771565b601a5442101590565b610e8861268a565b6001600160a01b0316610e99611a1d565b6001600160a01b031614610ebf5760405162461bcd60e51b8152600401610b8690614291565b600d80546001600160a01b0319166001600160a01b0392909216919091179055565b333214610f005760405162461bcd60e51b8152600401610b869061421b565b601b5460ff1615610f1057600080fd5b610f18610e77565b80610f2a5750601d54610100900460ff165b610f465760405162461bcd60e51b8152600401610b86906143bb565b602283604051610f569190613927565b9081526040519081900360200190205460ff1615610f865760405162461bcd60e51b8152600401610b8690614123565b600e54610fa1903390859085906001600160a01b0316612719565b610fbd5760405162461bcd60e51b8152600401610b8690613b68565b6000610fc7610e58565b6015543360009081526021602052604090205491925090610fe99084906146e3565b11156110075760405162461bcd60e51b8152600401610b8690614633565b6014548211156110295760405162461bcd60e51b8152600401610b869061408a565b60135461103683836146e3565b11156110545760405162461bcd60e51b8152600401610b869061430f565b600c546040516000916001600160a01b031690349061107290613a0d565b60006040518083038185875af1925050503d80600081146110af576040519150601f19603f3d011682016040523d82523d6000602084013e6110b4565b606091505b50509050806110d55760405162461bcd60e51b8152600401610b8690614195565b826012546110e3919061470f565b34146111015760405162461bcd60e51b8152600401610b8690613d1b565b60015b83811161115157336000908152602160205260408120805491611126836147a6565b9091555061113f90503361113a83866146e3565b612773565b80611149816147a6565b915050611104565b5060016022866040516111649190613927565b908152604051908190036020019020805491151560ff199092169190911790555050505050565b61119361268a565b6001600160a01b03166111a4611a1d565b6001600160a01b0316146111ca5760405162461bcd60e51b8152600401610b8690614291565b601d80549115156101000261ff0019909216919091179055565b6111f56111ef61268a565b8261278d565b6112115760405162461bcd60e51b8152600401610b8690614476565b610dad83838361280a565b60165481565b600061122d8361173d565b821061124b5760405162461bcd60e51b8152600401610b8690613c01565b506001600160a01b03919091166000908152600660209081526040808320938352929052205490565b600d546001600160a01b031681565b3332146112a25760405162461bcd60e51b8152600401610b869061421b565b6112aa61268a565b6001600160a01b03166112bb611a1d565b6001600160a01b0316146112e15760405162461bcd60e51b8152600401610b8690614291565b601b5460ff16156112f157600080fd5b60006112fb610e58565b60135490915061130b83836146e3565b11156113295760405162461bcd60e51b8152600401610b869061430f565b60015b828111610dad576113413361113a83856146e3565b8061134b816147a6565b91505061132c565b6001600160a01b03166000908152601f602052604090205460ff1690565b610dad83838360405180602001604052806000815250611dac565b606060006113998361173d565b905060008167ffffffffffffffff8111156113c457634e487b7160e01b600052604160045260246000fd5b6040519080825280602002602001820160405280156113ed578160200160208202803683370190505b50905060005b82811015611442576114058582611222565b82828151811061142557634e487b7160e01b600052603260045260246000fd5b60209081029190910101528061143a816147a6565b9150506113f3565b509392505050565b60175481565b61145b6111ef61268a565b6114775760405162461bcd60e51b8152600401610b8690614476565b61148081612937565b50565b600061148d610e58565b82106114ab5760405162461bcd60e51b8152600401610b8690614561565b600882815481106114cc57634e487b7160e01b600052603260045260246000fd5b90600052602060002001549050919050565b601b54610100900460ff1681565b6114f461268a565b6001600160a01b0316611505611a1d565b6001600160a01b03161461152b5760405162461bcd60e51b8152600401610b8690614291565b8051610e4e90601090602084019061335f565b601b5460ff1681565b600c546001600160a01b031681565b6000818152600260205260408120546001600160a01b031680610b3f5760405162461bcd60e51b8152600401610b86906140da565b600d546001600160a01b031633146115b55760405162461bcd60e51b8152600401610b8690613d68565b60005b8151811015610e4e576000601e60008484815181106115e757634e487b7160e01b600052603260045260246000fd5b6020026020010151815260200190815260200160002060006101000a81548160ff021916908315150217905550808061161f906147a6565b9150506115b8565b601a5481565b60108054610c9990614771565b6000818152601c6020526040902080546060919061165790614771565b80601f016020809104026020016040519081016040528092919081815260200182805461168390614771565b80156116d05780601f106116a5576101008083540402835291602001916116d0565b820191906000526020600020905b8154815290600101906020018083116116b357829003601f168201915b50505050509050919050565b6116e461268a565b6001600160a01b03166116f5611a1d565b6001600160a01b03161461171b5760405162461bcd60e51b8152600401610b8690614291565b600f80546001600160a01b0319166001600160a01b0392909216919091179055565b60006001600160a01b0382166117655760405162461bcd60e51b8152600401610b8690614040565b506001600160a01b031660009081526003602052604090205490565b61178961268a565b6001600160a01b031661179a611a1d565b6001600160a01b0316146117c05760405162461bcd60e51b8152600401610b8690614291565b6117ca60006129de565b565b3332146117eb5760405162461bcd60e51b8152600401610b869061421b565b6117f361268a565b6001600160a01b0316611804611a1d565b6001600160a01b03161461182a5760405162461bcd60e51b8152600401610b8690614291565b601b5460ff161561184d5760405162461bcd60e51b8152600401610b869061443f565b80516118583361173d565b10156118765760405162461bcd60e51b8152600401610b8690614512565b60006118813361138c565b905060005b8251811015610dad57611905338483815181106118b357634e487b7160e01b600052603260045260246000fd5b60200260200101518484815181106118db57634e487b7160e01b600052603260045260246000fd5b6020026020010151604051806040016040528060048152602001630307830360e41b815250612a30565b8061190f816147a6565b915050611886565b61191f61268a565b6001600160a01b0316611930611a1d565b6001600160a01b0316146119565760405162461bcd60e51b8152600401610b8690614291565b600c546040516000916001600160a01b031690479061197490613a0d565b60006040518083038185875af1925050503d80600081146119b1576040519150601f19603f3d011682016040523d82523d6000602084013e6119b6565b606091505b505090508061148057600080fd5b600b546001600160a01b031681565b6119db61268a565b6001600160a01b03166119ec611a1d565b6001600160a01b031614611a125760405162461bcd60e51b8152600401610b8690614291565b601755565b60155481565b600a546001600160a01b031690565b606060018054610bc690614771565b600080829050600181511015611a55576000915050610b42565b601981511115611a69576000915050610b42565b80600081518110611a8a57634e487b7160e01b600052603260045260246000fd5b6020910101516001600160f81b031916600160fd1b1415611aaf576000915050610b42565b8060018251611abe919061472e565b81518110611adc57634e487b7160e01b600052603260045260246000fd5b6020910101516001600160f81b031916600160fd1b1415611b01576000915050610b42565b600081600081518110611b2457634e487b7160e01b600052603260045260246000fd5b01602001516001600160f81b031916905060005b8251811015611c7d576000838281518110611b6357634e487b7160e01b600052603260045260246000fd5b01602001516001600160f81b0319169050600160fd1b81148015611b945750600160fd1b6001600160f81b03198416145b15611ba6576000945050505050610b42565b600360fc1b6001600160f81b0319821610801590611bd25750603960f81b6001600160f81b0319821611155b158015611c085750604160f81b6001600160f81b0319821610801590611c065750602d60f91b6001600160f81b0319821611155b155b8015611c3d5750606160f81b6001600160f81b0319821610801590611c3b5750603d60f91b6001600160f81b0319821611155b155b8015611c575750600160fd1b6001600160f81b0319821614155b15611c69576000945050505050610b42565b915080611c75816147a6565b915050611b38565b506001949350505050565b611c9061268a565b6001600160a01b0316826001600160a01b03161415611cc15760405162461bcd60e51b8152600401610b8690613df7565b8060056000611cce61268a565b6001600160a01b03908116825260208083019390935260409182016000908120918716808252919093529120805460ff191692151592909217909155611d1261268a565b6001600160a01b03167f17307eab39ab6107e8899845ad3d59bd9653f200f220920489ca2b5937696c3183604051611d4a9190613abe565b60405180910390a35050565b611d5e61268a565b6001600160a01b0316611d6f611a1d565b6001600160a01b031614611d955760405162461bcd60e51b8152600401610b8690614291565b601b805461ff001916610100179055565b60195481565b611dbd611db761268a565b8361278d565b611dd95760405162461bcd60e51b8152600401610b8690614476565b611de584848484612a30565b50505050565b601d5460ff1681565b611dfc61268a565b6001600160a01b0316611e0d611a1d565b6001600160a01b031614611e335760405162461bcd60e51b8152600401610b8690614291565b8051610e4e90601190602084019061335f565b6000611e5183611556565b9050806001600160a01b0316611e6561268a565b6001600160a01b031614611e8b5760405162461bcd60e51b8152600401610b8690613bca565b611e9482611a3b565b1515600114611eb55760405162461bcd60e51b8152600401610b86906145ad565b6000838152601c6020526040908190209051600291611ed391613943565b602060405180830381855afa158015611ef0573d6000803e3d6000fd5b5050506040513d601f19601f82011682018060405250810190611f139190613779565b600283604051611f239190613927565b602060405180830381855afa158015611f40573d6000803e3d6000fd5b5050506040513d601f19601f82011682018060405250810190611f639190613779565b1415611f815760405162461bcd60e51b8152600401610b86906144c7565b600b546001600160a01b0316639dc29fac611f9a61268a565b6017546040518363ffffffff1660e01b8152600401611fba929190613a61565b600060405180830381600087803b158015611fd457600080fd5b505af1158015611fe8573d6000803e3d6000fd5b5050506000848152601c602090815260409091208451611de59350909185019061335f565b60606120188261268e565b6120345760405162461bcd60e51b8152600401610b869061436c565b600061203e612a63565b601b54909150610100900460ff166120e3576011805461205d90614771565b80601f016020809104026020016040519081016040528092919081815260200182805461208990614771565b80156120d65780601f106120ab576101008083540402835291602001916120d6565b820191906000526020600020905b8154815290600101906020018083116120b957829003601f168201915b5050505050915050610b42565b6000815111612101576040518060200160405280600081525061212c565b8061210b84612a72565b60405160200161211c9291906139de565b6040516020818303038152906040525b915050610b42565b50919050565b60145481565b60185481565b60135481565b61215461268a565b6001600160a01b0316612165611a1d565b6001600160a01b03161461218b5760405162461bcd60e51b8152600401610b8690614291565b600e80546001600160a01b0319166001600160a01b0392909216919091179055565b6121b561268a565b6001600160a01b03166121c6611a1d565b6001600160a01b0316146121ec5760405162461bcd60e51b8152600401610b8690614291565b600b80546001600160a01b0319166001600160a01b0392909216919091179055565b6001600160a01b03918216600090815260056020908152604080832093909416825291909152205460ff1690565b6000601954421015801561225e575060185460195461225b91906146e3565b42105b905090565b61226b61268a565b6001600160a01b031661227c611a1d565b6001600160a01b0316146122a25760405162461bcd60e51b8152600401610b8690614291565b60005b81811015610dad576001601f60008585858181106122d357634e487b7160e01b600052603260045260246000fd5b90506020020160208101906122e8919061348a565b6001600160a01b031681526020810191909152604001600020805460ff19169115159190911790558061231a816147a6565b9150506122a5565b61232a61268a565b6001600160a01b031661233b611a1d565b6001600160a01b0316146123615760405162461bcd60e51b8152600401610b8690614291565b6001600160a01b0381166123875760405162461bcd60e51b8152600401610b8690613c9e565b611480816129de565b61239861268a565b6001600160a01b03166123a9611a1d565b6001600160a01b0316146123cf5760405162461bcd60e51b8152600401610b8690614291565b601d805460ff1916911515919091179055565b601d54610100900460ff1681565b33321461240f5760405162461bcd60e51b8152600401610b869061421b565b601b5460ff16156124325760405162461bcd60e51b8152600401610b869061443f565b61243a61223c565b806124475750601d5460ff165b6124635760405162461bcd60e51b8152600401610b8690613ff1565b336000908152601f602052604090205460ff166124925760405162461bcd60e51b8152600401610b8690613f19565b6022836040516124a29190613927565b9081526040519081900360200190205460ff16156124d25760405162461bcd60e51b8152600401610b8690614123565b600f546124ed903390859085906001600160a01b0316612719565b6125095760405162461bcd60e51b8152600401610b8690613f5d565b6000612513610e58565b601654336000908152602080526040902054919250906125349084906146e3565b11156125525760405162461bcd60e51b8152600401610b8690613ebc565b81601254612560919061470f565b34101561257f5760405162461bcd60e51b8152600401610b86906145e4565b600c546040516000916001600160a01b031690349061259d90613a0d565b60006040518083038185875af1925050503d80600081146125da576040519150601f19603f3d011682016040523d82523d6000602084013e6125df565b606091505b50509050806126005760405162461bcd60e51b8152600401610b8690614195565b60015b838111611151573360009081526020805260408120805491612624836147a6565b9091555061263890503361113a83866146e3565b80612642816147a6565b915050612603565b60006001600160e01b031982166380ac58cd60e01b148061267b57506001600160e01b03198216635b5e139f60e01b145b80610b3f5750610b3f82612b8d565b3390565b6000908152600260205260409020546001600160a01b0316151590565b600081815260046020526040902080546001600160a01b0319166001600160a01b03841690811790915581906126e082611556565b6001600160a01b03167f8c5be1e5ebec7d5bd14f71427d1e84f3dd0314c0f7b2291e5b200ac8c7c3b92560405160405180910390a45050565b600080858560405160200161272f9291906138ef565b60408051601f19818403018152919052805160209091012090506127538185612ba6565b6001600160a01b0316836001600160a01b0316149150505b949350505050565b610e4e828260405180602001604052806000815250612bc2565b60006127988261268e565b6127b45760405162461bcd60e51b8152600401610b8690613e70565b60006127bf83611556565b9050806001600160a01b0316846001600160a01b031614806127fa5750836001600160a01b03166127ef84610c49565b6001600160a01b0316145b8061276b575061276b818561220e565b826001600160a01b031661281d82611556565b6001600160a01b0316146128435760405162461bcd60e51b8152600401610b86906142c6565b6001600160a01b0382166128695760405162461bcd60e51b8152600401610b8690613db3565b612874838383612bf5565b61287f6000826126ab565b6001600160a01b03831660009081526003602052604081208054600192906128a890849061472e565b90915550506001600160a01b03821660009081526003602052604081208054600192906128d69084906146e3565b909155505060008181526002602052604080822080546001600160a01b0319166001600160a01b0386811691821790925591518493918716917fddf252ad1be2c89b69c2b068fc378daa952ba7f163c4a11628f55a4df523b3ef91a4505050565b600061294282611556565b905061295081600084612bf5565b61295b6000836126ab565b6001600160a01b038116600090815260036020526040812080546001929061298490849061472e565b909155505060008281526002602052604080822080546001600160a01b0319169055518391906001600160a01b038416907fddf252ad1be2c89b69c2b068fc378daa952ba7f163c4a11628f55a4df523b3ef908390a45050565b600a80546001600160a01b038381166001600160a01b0319831681179093556040519116919082907f8be0079c531659141344cd1fd0a4f28419497f9722a3daafe3b4186f6b6457e090600090a35050565b612a3b84848461280a565b612a4784848484612c2f565b611de55760405162461bcd60e51b8152600401610b8690613c4c565b606060108054610bc690614771565b606081612a9757506040805180820190915260018152600360fc1b6020820152610b42565b8160005b8115612ac15780612aab816147a6565b9150612aba9050600a836146fb565b9150612a9b565b60008167ffffffffffffffff811115612aea57634e487b7160e01b600052604160045260246000fd5b6040519080825280601f01601f191660200182016040528015612b14576020820181803683370190505b5090505b841561276b57612b2960018361472e565b9150612b36600a866147c1565b612b419060306146e3565b60f81b818381518110612b6457634e487b7160e01b600052603260045260246000fd5b60200101906001600160f81b031916908160001a905350612b86600a866146fb565b9450612b18565b6001600160e01b031981166301ffc9a760e01b14919050565b6000806000612bb58585612d47565b9150915061144281612db7565b612bcc8383612ee4565b612bd96000848484612c2f565b610dad5760405162461bcd60e51b8152600401610b8690613c4c565b6000818152601e602052604090205460ff1615612c245760405162461bcd60e51b8152600401610b8690613b31565b610dad838383612fc3565b6000612c43846001600160a01b031661304c565b15612d3f57836001600160a01b031663150b7a02612c5f61268a565b8786866040518563ffffffff1660e01b8152600401612c819493929190613a24565b602060405180830381600087803b158015612c9b57600080fd5b505af1925050508015612ccb575060408051601f3d908101601f19168201909252612cc8918101906137ad565b60015b612d25573d808015612cf9576040519150601f19603f3d011682016040523d82523d6000602084013e612cfe565b606091505b508051612d1d5760405162461bcd60e51b8152600401610b8690613c4c565b805181602001fd5b6001600160e01b031916630a85bd0160e11b14905061276b565b50600161276b565b600080825160411415612d7e5760208301516040840151606085015160001a612d7287828585613052565b94509450505050612db0565b825160401415612da85760208301516040840151612d9d868383613132565b935093505050612db0565b506000905060025b9250929050565b6000816004811115612dd957634e487b7160e01b600052602160045260246000fd5b1415612de457611480565b6001816004811115612e0657634e487b7160e01b600052602160045260246000fd5b1415612e245760405162461bcd60e51b8152600401610b8690613afa565b6002816004811115612e4657634e487b7160e01b600052602160045260246000fd5b1415612e645760405162461bcd60e51b8152600401610b8690613b93565b6003816004811115612e8657634e487b7160e01b600052602160045260246000fd5b1415612ea45760405162461bcd60e51b8152600401610b8690613e2e565b6004816004811115612ec657634e487b7160e01b600052602160045260246000fd5b14156114805760405162461bcd60e51b8152600401610b8690614153565b6001600160a01b038216612f0a5760405162461bcd60e51b8152600401610b86906141e6565b612f138161268e565b15612f305760405162461bcd60e51b8152600401610b8690613ce4565b612f3c60008383612bf5565b6001600160a01b0382166000908152600360205260408120805460019290612f659084906146e3565b909155505060008181526002602052604080822080546001600160a01b0319166001600160a01b03861690811790915590518392907fddf252ad1be2c89b69c2b068fc378daa952ba7f163c4a11628f55a4df523b3ef908290a45050565b612fce838383610dad565b6001600160a01b038316612fea57612fe581613161565b61300d565b816001600160a01b0316836001600160a01b03161461300d5761300d83826131a5565b6001600160a01b0382166130295761302481613242565b610dad565b826001600160a01b0316826001600160a01b031614610dad57610dad828261331b565b3b151590565b6000807f7fffffffffffffffffffffffffffffff5d576e7357a4501ddfe92f46681b20a08311156130895750600090506003613129565b8460ff16601b141580156130a157508460ff16601c14155b156130b25750600090506004613129565b6000600187878787604051600081526020016040526040516130d79493929190613ac9565b6020604051602081039080840390855afa1580156130f9573d6000803e3d6000fd5b5050604051601f1901519150506001600160a01b03811661312257600060019250925050613129565b9150600090505b94509492505050565b6000806001600160ff1b03831660ff84901c601b0161315387828885613052565b935093505050935093915050565b600880546000838152600960205260408120829055600182018355919091527ff3f7a9fe364faab93b216da50a3214154f22a0a2b415b23a84c8169e8b636ee30155565b600060016131b28461173d565b6131bc919061472e565b60008381526007602052604090205490915080821461320f576001600160a01b03841660009081526006602090815260408083208584528252808320548484528184208190558352600790915290208190555b5060009182526007602090815260408084208490556001600160a01b039094168352600681528383209183525290812055565b6008546000906132549060019061472e565b6000838152600960205260408120546008805493945090928490811061328a57634e487b7160e01b600052603260045260246000fd5b9060005260206000200154905080600883815481106132b957634e487b7160e01b600052603260045260246000fd5b60009182526020808320909101929092558281526009909152604080822084905585825281205560088054806132ff57634e487b7160e01b600052603160045260246000fd5b6001900381819060005260206000200160009055905550505050565b60006133268361173d565b6001600160a01b039093166000908152600660209081526040808320868452825280832085905593825260079052919091209190915550565b82805461336b90614771565b90600052602060002090601f01602090048101928261338d57600085556133d3565b82601f106133a657805160ff19168380011785556133d3565b828001600101855582156133d3579182015b828111156133d35782518255916020019190600101906133b8565b506133df9291506133e3565b5090565b5b808211156133df57600081556001016133e4565b80356001600160a01b0381168114610b4257600080fd5b80358015158114610b4257600080fd5b600082601f83011261342f578081fd5b813567ffffffffffffffff81111561344957613449614801565b61345c601f8201601f1916602001614689565b818152846020838601011115613470578283fd5b816020850160208301379081016020019190915292915050565b60006020828403121561349b578081fd5b6134a4826133f8565b9392505050565b600080604083850312156134bd578081fd5b6134c6836133f8565b91506134d4602084016133f8565b90509250929050565b6000806000606084860312156134f1578081fd5b6134fa846133f8565b9250613508602085016133f8565b9150604084013590509250925092565b6000806000806080858703121561352d578081fd5b613536856133f8565b9350613544602086016133f8565b925060408501359150606085013567ffffffffffffffff811115613566578182fd5b6135728782880161341f565b91505092959194509250565b60008060408385031215613590578182fd5b613599836133f8565b91506134d46020840161340f565b600080604083850312156135b9578182fd5b6135c2836133f8565b946020939093013593505050565b600080602083850312156135e2578182fd5b823567ffffffffffffffff808211156135f9578384fd5b818501915085601f83011261360c578384fd5b81358181111561361a578485fd5b866020808302850101111561362d578485fd5b60209290920196919550909350505050565b60006020808385031215613651578182fd5b823567ffffffffffffffff811115613667578283fd5b8301601f81018513613677578283fd5b803561368a613685826146b3565b614689565b81815283810190838501858402850186018910156136a6578687fd5b8694505b838510156136cf576136bb816133f8565b8352600194909401939185019185016136aa565b50979650505050505050565b600060208083850312156136ed578182fd5b823567ffffffffffffffff811115613703578283fd5b8301601f81018513613713578283fd5b8035613721613685826146b3565b818152838101908385018584028501860189101561373d578687fd5b8694505b838510156136cf578035835260019490940193918501918501613741565b600060208284031215613770578081fd5b6134a48261340f565b60006020828403121561378a578081fd5b5051919050565b6000602082840312156137a2578081fd5b81356134a481614817565b6000602082840312156137be578081fd5b81516134a481614817565b6000806000606084860312156137dd578081fd5b833567ffffffffffffffff808211156137f4578283fd5b6138008783880161341f565b94506020860135915080821115613815578283fd5b506138228682870161341f565b925050604084013590509250925092565b600060208284031215613844578081fd5b813567ffffffffffffffff81111561385a578182fd5b61276b8482850161341f565b600060208284031215613877578081fd5b5035919050565b60008060408385031215613890578182fd5b82359150602083013567ffffffffffffffff8111156138ad578182fd5b6138b98582860161341f565b9150509250929050565b600081518084526138db816020860160208601614745565b601f01601f19169290920160200192915050565b60006bffffffffffffffffffffffff198460601b1682528251613919816014850160208701614745565b919091016014019392505050565b60008251613939818460208701614745565b9190910192915050565b815460009081906002810460018083168061395f57607f831692505b602080841082141561397f57634e487b7160e01b87526022600452602487fd5b81801561399357600181146139a4576139d0565b60ff198616895284890196506139d0565b6139ad8a6146d7565b885b868110156139c85781548b8201529085019083016139af565b505084890196505b509498975050505050505050565b600083516139f0818460208801614745565b835190830190613a04818360208801614745565b01949350505050565b90565b6001600160a01b0391909116815260200190565b6001600160a01b0385811682528416602082015260408101839052608060608201819052600090613a57908301846138c3565b9695505050505050565b6001600160a01b03929092168252602082015260400190565b6020808252825182820181905260009190848201906040850190845b81811015613ab257835183529284019291840191600101613a96565b50909695505050505050565b901515815260200190565b93845260ff9290921660208401526040830152606082015260800190565b6000602082526134a460208301846138c3565b60208082526018908201527f45434453413a20696e76616c6964207369676e61747572650000000000000000604082015260600190565b60208082526017908201527f53484f47554e3a20546f6b656e206973204c6f636b6564000000000000000000604082015260600190565b602080825260119082015270696e76616c6964207369676e617475726560781b604082015260600190565b6020808252601f908201527f45434453413a20696e76616c6964207369676e6174757265206c656e67746800604082015260600190565b6020808252601f908201527f4552433732313a2063616c6c6572206973206e6f7420746865206f776e657200604082015260600190565b6020808252602b908201527f455243373231456e756d657261626c653a206f776e657220696e646578206f7560408201526a74206f6620626f756e647360a81b606082015260800190565b60208082526032908201527f4552433732313a207472616e7366657220746f206e6f6e20455243373231526560408201527131b2b4bb32b91034b6b83632b6b2b73a32b960711b606082015260800190565b60208082526026908201527f4f776e61626c653a206e6577206f776e657220697320746865207a65726f206160408201526564647265737360d01b606082015260800190565b6020808252601c908201527f4552433732313a20746f6b656e20616c7265616479206d696e74656400000000604082015260600190565b6020808252602d908201527f53484f47554e3a206e6f7420656e6f7567682065746865722073656e7420666f60408201526c1c881b5a5b9d08185b5bdd5b9d609a1b606082015260800190565b6020808252602b908201527f53484f47554e3a204f6e6c792063616c6c61626c652066726f6d207374616b6960408201526a1b99c818dbdb9d1c9858dd60aa1b606082015260800190565b60208082526024908201527f4552433732313a207472616e7366657220746f20746865207a65726f206164646040820152637265737360e01b606082015260800190565b60208082526019908201527f4552433732313a20617070726f766520746f2063616c6c657200000000000000604082015260600190565b60208082526022908201527f45434453413a20696e76616c6964207369676e6174757265202773272076616c604082015261756560f01b606082015260800190565b6020808252602c908201527f4552433732313a206f70657261746f7220717565727920666f72206e6f6e657860408201526b34b9ba32b73a103a37b5b2b760a11b606082015260800190565b6020808252603d908201527f53484f47554e3a20796f752063616e206f6e6c79206d696e742061206d61786960408201527f6d756d206f662074776f206e667420647572696e672070726573616c65000000606082015260800190565b60208082526024908201527f53484f47554e3a20796f7520617265206e6f7420696e207468652077686974656040820152631b1a5cdd60e21b606082015260800190565b60208082526019908201527f53484f47554e3a20696e76616c6964207369676e617475726500000000000000604082015260600190565b60208082526038908201527f4552433732313a20617070726f76652063616c6c6572206973206e6f74206f7760408201527f6e6572206e6f7220617070726f76656420666f7220616c6c0000000000000000606082015260800190565b6020808252602f908201527f53484f47554e3a2070726573616c6520686173206e6f7420737461727465642060408201526e1bdc881a5d081a185cc8195b991959608a1b606082015260800190565b6020808252602a908201527f4552433732313a2062616c616e636520717565727920666f7220746865207a65604082015269726f206164647265737360b01b606082015260800190565b60208082526030908201527f53484f47554e3a206578636565646564206d6178206d696e7420616d6f756e7460408201526f103832b9103a3930b739b0b1ba34b7b760811b606082015260800190565b60208082526029908201527f4552433732313a206f776e657220717565727920666f72206e6f6e657869737460408201526832b73a103a37b5b2b760b91b606082015260800190565b60208082526016908201527514d213d1d5538e881b9bdb98d9481dd85cc81d5cd95960521b604082015260600190565b60208082526022908201527f45434453413a20696e76616c6964207369676e6174757265202776272076616c604082015261756560f01b606082015260800190565b60208082526031908201527f53484f47554e3a206e6f742061626c6520746f20666f7277617264206d73672060408201527076616c756520746f20747265617375727960781b606082015260800190565b6020808252818101527f4552433732313a206d696e7420746f20746865207a65726f2061646472657373604082015260600190565b60208082526010908201526f53484f47554e3a204f6e6c7920454f4160801b604082015260600190565b6020808252602c908201527f4552433732313a20617070726f76656420717565727920666f72206e6f6e657860408201526b34b9ba32b73a103a37b5b2b760a11b606082015260800190565b6020808252818101527f4f776e61626c653a2063616c6c6572206973206e6f7420746865206f776e6572604082015260600190565b60208082526029908201527f4552433732313a207472616e73666572206f6620746f6b656e2074686174206960408201526839903737ba1037bbb760b91b606082015260800190565b6020808252603e908201527f53484f47554e3a20746f74616c206d696e7420616d6f756e742065786365656460408201527f656420737570706c792c20747279206c6f776572696e6720616d6f756e740000606082015260800190565b6020808252602f908201527f4552433732314d657461646174613a2055524920717565727920666f72206e6f60408201526e3732bc34b9ba32b73a103a37b5b2b760891b606082015260800190565b60208082526023908201527f53484f47554e3a207075626c69632073616c6520686173206e6f7420737461726040820152621d195960ea1b606082015260800190565b60208082526021908201527f4552433732313a20617070726f76616c20746f2063757272656e74206f776e656040820152603960f91b606082015260800190565b6020808252601a908201527f53484f47554e3a20636f6e747261637420697320706175736564000000000000604082015260600190565b60208082526031908201527f4552433732313a207472616e736665722063616c6c6572206973206e6f74206f6040820152701ddb995c881b9bdc88185c1c1c9bdd9959607a1b606082015260800190565b6020808252602b908201527f53484f47554e3a204e6577206e616d652069732073616d65206173207468652060408201526a63757272656e74206f6e6560a81b606082015260800190565b6020808252602f908201527f53484f47554e3a206e6f7420656e6f75676820696e2077616c6c657420666f7260408201526e08185a5c991c9bdc08185b5bdd5b9d608a1b606082015260800190565b6020808252602c908201527f455243373231456e756d657261626c653a20676c6f62616c20696e646578206f60408201526b7574206f6620626f756e647360a01b606082015260800190565b6020808252601c908201527f53484f47554e3a204e6f7420612076616c6964206e6577206e616d6500000000604082015260600190565b6020808252602f908201527f53484f47554e3a206e6f7420656e6f75676874206574686572652073656e742060408201526e199bdc881b5a5b9d08185b5bdd5b9d608a1b606082015260800190565b6020808252602d908201527f53484f47554e3a20596f752068617665206578636565646564206d617820616d60408201526c6f756e74206f66206d696e747360981b606082015260800190565b90815260200190565b60405181810167ffffffffffffffff811182821017156146ab576146ab614801565b604052919050565b600067ffffffffffffffff8211156146cd576146cd614801565b5060209081020190565b60009081526020902090565b600082198211156146f6576146f66147d5565b500190565b60008261470a5761470a6147eb565b500490565b6000816000190483118215151615614729576147296147d5565b500290565b600082821015614740576147406147d5565b500390565b60005b83811015614760578181015183820152602001614748565b83811115611de55750506000910152565b60028104600182168061478557607f821691505b6020821081141561213457634e487b7160e01b600052602260045260246000fd5b60006000198214156147ba576147ba6147d5565b5060010190565b6000826147d0576147d06147eb565b500690565b634e487b7160e01b600052601160045260246000fd5b634e487b7160e01b600052601260045260246000fd5b634e487b7160e01b600052604160045260246000fd5b6001600160e01b03198116811461148057600080fdfea2646970667358221220075387c154ea0a92972523d3051a43064fa2a316fba2f415e77378ea592fe3b164736f6c63430008000033",
  "devdoc": {
    "kind": "dev",
    "methods": {
      "approve(address,uint256)": {
        "details": "See {IERC721-approve}."
      },
      "balanceOf(address)": {
        "details": "See {IERC721-balanceOf}."
      },
      "getApproved(uint256)": {
        "details": "See {IERC721-getApproved}."
      },
      "isApprovedForAll(address,address)": {
        "details": "See {IERC721-isApprovedForAll}."
      },
      "name()": {
        "details": "See {IERC721Metadata-name}."
      },
      "owner()": {
        "details": "Returns the address of the current owner."
      },
      "ownerOf(uint256)": {
        "details": "See {IERC721-ownerOf}."
      },
      "renounceOwnership()": {
        "details": "Leaves the contract without owner. It will not be possible to call `onlyOwner` functions anymore. Can only be called by the current owner. NOTE: Renouncing ownership will leave the contract without an owner, thereby removing any functionality that is only available to the owner."
      },
      "safeTransferFrom(address,address,uint256)": {
        "details": "See {IERC721-safeTransferFrom}."
      },
      "safeTransferFrom(address,address,uint256,bytes)": {
        "details": "See {IERC721-safeTransferFrom}."
      },
      "setApprovalForAll(address,bool)": {
        "details": "See {IERC721-setApprovalForAll}."
      },
      "supportsInterface(bytes4)": {
        "details": "See {IERC165-supportsInterface}."
      },
      "symbol()": {
        "details": "See {IERC721Metadata-symbol}."
      },
      "tokenByIndex(uint256)": {
        "details": "See {IERC721Enumerable-tokenByIndex}."
      },
      "tokenOfOwnerByIndex(address,uint256)": {
        "details": "See {IERC721Enumerable-tokenOfOwnerByIndex}."
      },
      "tokenURI(uint256)": {
        "details": "See {IERC721Metadata-tokenURI}."
      },
      "totalSupply()": {
        "details": "See {IERC721Enumerable-totalSupply}."
      },
      "transferFrom(address,address,uint256)": {
        "details": "See {IERC721-transferFrom}."
      },
      "transferOwnership(address)": {
        "details": "Transfers ownership of the contract to a new account (`newOwner`). Can only be called by the current owner."
      }
    },
    "version": 1
  },
  "userdoc": {
    "kind": "user",
    "methods": {},
    "version": 1
  },
  "storageLayout": {
    "storage": [
      {
        "astId": 2180,
        "contract": "contracts/ShogunNFT.sol:ShogunNFT",
        "label": "_name",
        "offset": 0,
        "slot": "0",
        "type": "t_string_storage"
      },
      {
        "astId": 2182,
        "contract": "contracts/ShogunNFT.sol:ShogunNFT",
        "label": "_symbol",
        "offset": 0,
        "slot": "1",
        "type": "t_string_storage"
      },
      {
        "astId": 2186,
        "contract": "contracts/ShogunNFT.sol:ShogunNFT",
        "label": "_owners",
        "offset": 0,
        "slot": "2",
        "type": "t_mapping(t_uint256,t_address)"
      },
      {
        "astId": 2190,
        "contract": "contracts/ShogunNFT.sol:ShogunNFT",
        "label": "_balances",
        "offset": 0,
        "slot": "3",
        "type": "t_mapping(t_address,t_uint256)"
      },
      {
        "astId": 2194,
        "contract": "contracts/ShogunNFT.sol:ShogunNFT",
        "label": "_tokenApprovals",
        "offset": 0,
        "slot": "4",
        "type": "t_mapping(t_uint256,t_address)"
      },
      {
        "astId": 2200,
        "contract": "contracts/ShogunNFT.sol:ShogunNFT",
        "label": "_operatorApprovals",
        "offset": 0,
        "slot": "5",
        "type": "t_mapping(t_address,t_mapping(t_address,t_bool))"
      },
      {
        "astId": 3119,
        "contract": "contracts/ShogunNFT.sol:ShogunNFT",
        "label": "_ownedTokens",
        "offset": 0,
        "slot": "6",
        "type": "t_mapping(t_address,t_mapping(t_uint256,t_uint256))"
      },
      {
        "astId": 3123,
        "contract": "contracts/ShogunNFT.sol:ShogunNFT",
        "label": "_ownedTokensIndex",
        "offset": 0,
        "slot": "7",
        "type": "t_mapping(t_uint256,t_uint256)"
      },
      {
        "astId": 3126,
        "contract": "contracts/ShogunNFT.sol:ShogunNFT",
        "label": "_allTokens",
        "offset": 0,
        "slot": "8",
        "type": "t_array(t_uint256)dyn_storage"
      },
      {
        "astId": 3130,
        "contract": "contracts/ShogunNFT.sol:ShogunNFT",
        "label": "_allTokensIndex",
        "offset": 0,
        "slot": "9",
        "type": "t_mapping(t_uint256,t_uint256)"
      },
      {
        "astId": 1277,
        "contract": "contracts/ShogunNFT.sol:ShogunNFT",
        "label": "_owner",
        "offset": 0,
        "slot": "10",
        "type": "t_address"
      },
      {
        "astId": 4972,
        "contract": "contracts/ShogunNFT.sol:ShogunNFT",
        "label": "SHOGUN_TOKEN",
        "offset": 0,
        "slot": "11",
        "type": "t_contract(IShogunToken)7638"
      },
      {
        "astId": 4974,
        "contract": "contracts/ShogunNFT.sol:ShogunNFT",
        "label": "treasury",
        "offset": 0,
        "slot": "12",
        "type": "t_address_payable"
      },
      {
        "astId": 4976,
        "contract": "contracts/ShogunNFT.sol:ShogunNFT",
        "label": "stakingContractAddress",
        "offset": 0,
        "slot": "13",
        "type": "t_address"
      },
      {
        "astId": 4978,
        "contract": "contracts/ShogunNFT.sol:ShogunNFT",
        "label": "signerAddressPublic",
        "offset": 0,
        "slot": "14",
        "type": "t_address"
      },
      {
        "astId": 4980,
        "contract": "contracts/ShogunNFT.sol:ShogunNFT",
        "label": "signerAddressPresale",
        "offset": 0,
        "slot": "15",
        "type": "t_address"
      },
      {
        "astId": 4982,
        "contract": "contracts/ShogunNFT.sol:ShogunNFT",
        "label": "baseURI",
        "offset": 0,
        "slot": "16",
        "type": "t_string_storage"
      },
      {
        "astId": 4984,
        "contract": "contracts/ShogunNFT.sol:ShogunNFT",
        "label": "notRevealedUri",
        "offset": 0,
        "slot": "17",
        "type": "t_string_storage"
      },
      {
        "astId": 4987,
        "contract": "contracts/ShogunNFT.sol:ShogunNFT",
        "label": "cost",
        "offset": 0,
        "slot": "18",
        "type": "t_uint256"
      },
      {
        "astId": 4990,
        "contract": "contracts/ShogunNFT.sol:ShogunNFT",
        "label": "maxSupply",
        "offset": 0,
        "slot": "19",
        "type": "t_uint256"
      },
      {
        "astId": 4993,
        "contract": "contracts/ShogunNFT.sol:ShogunNFT",
        "label": "maxMintPerTxn",
        "offset": 0,
        "slot": "20",
        "type": "t_uint256"
      },
      {
        "astId": 4996,
        "contract": "contracts/ShogunNFT.sol:ShogunNFT",
        "label": "nftPerAddressLimitPublic",
        "offset": 0,
        "slot": "21",
        "type": "t_uint256"
      },
      {
        "astId": 4999,
        "contract": "contracts/ShogunNFT.sol:ShogunNFT",
        "label": "nftPerAddressLimitPresale",
        "offset": 0,
        "slot": "22",
        "type": "t_uint256"
      },
      {
        "astId": 5002,
        "contract": "contracts/ShogunNFT.sol:ShogunNFT",
        "label": "nameChangePrice",
        "offset": 0,
        "slot": "23",
        "type": "t_uint256"
      },
      {
        "astId": 5005,
        "contract": "contracts/ShogunNFT.sol:ShogunNFT",
        "label": "presaleWindow",
        "offset": 0,
        "slot": "24",
        "type": "t_uint256"
      },
      {
        "astId": 5008,
        "contract": "contracts/ShogunNFT.sol:ShogunNFT",
        "label": "presaleStartTime",
        "offset": 0,
        "slot": "25",
        "type": "t_uint256"
      },
      {
        "astId": 5011,
        "contract": "contracts/ShogunNFT.sol:ShogunNFT",
        "label": "publicSaleStartTime",
        "offset": 0,
        "slot": "26",
        "type": "t_uint256"
      },
      {
        "astId": 5014,
        "contract": "contracts/ShogunNFT.sol:ShogunNFT",
        "label": "paused",
        "offset": 0,
        "slot": "27",
        "type": "t_bool"
      },
      {
        "astId": 5017,
        "contract": "contracts/ShogunNFT.sol:ShogunNFT",
        "label": "revealed",
        "offset": 1,
        "slot": "27",
        "type": "t_bool"
      },
      {
        "astId": 5021,
        "contract": "contracts/ShogunNFT.sol:ShogunNFT",
        "label": "shogunName",
        "offset": 0,
        "slot": "28",
        "type": "t_mapping(t_uint256,t_string_storage)"
      },
      {
        "astId": 5024,
        "contract": "contracts/ShogunNFT.sol:ShogunNFT",
        "label": "presaleOpen",
        "offset": 0,
        "slot": "29",
        "type": "t_bool"
      },
      {
        "astId": 5027,
        "contract": "contracts/ShogunNFT.sol:ShogunNFT",
        "label": "publicSaleOpen",
        "offset": 1,
        "slot": "29",
        "type": "t_bool"
      },
      {
        "astId": 5031,
        "contract": "contracts/ShogunNFT.sol:ShogunNFT",
        "label": "_isLocked",
        "offset": 0,
        "slot": "30",
        "type": "t_mapping(t_uint256,t_bool)"
      },
      {
        "astId": 5035,
        "contract": "contracts/ShogunNFT.sol:ShogunNFT",
        "label": "whitelistedAddresses",
        "offset": 0,
        "slot": "31",
        "type": "t_mapping(t_address,t_bool)"
      },
      {
        "astId": 5039,
        "contract": "contracts/ShogunNFT.sol:ShogunNFT",
        "label": "presaleAddressMintedAmount",
        "offset": 0,
        "slot": "32",
        "type": "t_mapping(t_address,t_uint256)"
      },
      {
        "astId": 5043,
        "contract": "contracts/ShogunNFT.sol:ShogunNFT",
        "label": "publicAddressMintedAmount",
        "offset": 0,
        "slot": "33",
        "type": "t_mapping(t_address,t_uint256)"
      },
      {
        "astId": 5047,
        "contract": "contracts/ShogunNFT.sol:ShogunNFT",
        "label": "_nonceUsed",
        "offset": 0,
        "slot": "34",
        "type": "t_mapping(t_bytes_memory_ptr,t_bool)"
      }
    ],
    "types": {
      "t_address": {
        "encoding": "inplace",
        "label": "address",
        "numberOfBytes": "20"
      },
      "t_address_payable": {
        "encoding": "inplace",
        "label": "address payable",
        "numberOfBytes": "20"
      },
      "t_array(t_uint256)dyn_storage": {
        "base": "t_uint256",
        "encoding": "dynamic_array",
        "label": "uint256[]",
        "numberOfBytes": "32"
      },
      "t_bool": {
        "encoding": "inplace",
        "label": "bool",
        "numberOfBytes": "1"
      },
      "t_bytes_memory_ptr": {
        "encoding": "bytes",
        "label": "bytes",
        "numberOfBytes": "32"
      },
      "t_contract(IShogunToken)7638": {
        "encoding": "inplace",
        "label": "contract IShogunToken",
        "numberOfBytes": "20"
      },
      "t_mapping(t_address,t_bool)": {
        "encoding": "mapping",
        "key": "t_address",
        "label": "mapping(address => bool)",
        "numberOfBytes": "32",
        "value": "t_bool"
      },
      "t_mapping(t_address,t_mapping(t_address,t_bool))": {
        "encoding": "mapping",
        "key": "t_address",
        "label": "mapping(address => mapping(address => bool))",
        "numberOfBytes": "32",
        "value": "t_mapping(t_address,t_bool)"
      },
      "t_mapping(t_address,t_mapping(t_uint256,t_uint256))": {
        "encoding": "mapping",
        "key": "t_address",
        "label": "mapping(address => mapping(uint256 => uint256))",
        "numberOfBytes": "32",
        "value": "t_mapping(t_uint256,t_uint256)"
      },
      "t_mapping(t_address,t_uint256)": {
        "encoding": "mapping",
        "key": "t_address",
        "label": "mapping(address => uint256)",
        "numberOfBytes": "32",
        "value": "t_uint256"
      },
      "t_mapping(t_bytes_memory_ptr,t_bool)": {
        "encoding": "mapping",
        "key": "t_bytes_memory_ptr",
        "label": "mapping(bytes => bool)",
        "numberOfBytes": "32",
        "value": "t_bool"
      },
      "t_mapping(t_uint256,t_address)": {
        "encoding": "mapping",
        "key": "t_uint256",
        "label": "mapping(uint256 => address)",
        "numberOfBytes": "32",
        "value": "t_address"
      },
      "t_mapping(t_uint256,t_bool)": {
        "encoding": "mapping",
        "key": "t_uint256",
        "label": "mapping(uint256 => bool)",
        "numberOfBytes": "32",
        "value": "t_bool"
      },
      "t_mapping(t_uint256,t_string_storage)": {
        "encoding": "mapping",
        "key": "t_uint256",
        "label": "mapping(uint256 => string)",
        "numberOfBytes": "32",
        "value": "t_string_storage"
      },
      "t_mapping(t_uint256,t_uint256)": {
        "encoding": "mapping",
        "key": "t_uint256",
        "label": "mapping(uint256 => uint256)",
        "numberOfBytes": "32",
        "value": "t_uint256"
      },
      "t_string_storage": {
        "encoding": "bytes",
        "label": "string",
        "numberOfBytes": "32"
      },
      "t_uint256": {
        "encoding": "inplace",
        "label": "uint256",
        "numberOfBytes": "32"
      }
    }
  }
}